{
  "address": "0x32081FF05080E4c9E246C8481020f0CB42f1a0eB",
  "abi": [
    {
      "inputs": [
        {
          "internalType": "uint256",
          "name": "_unlockTime",
          "type": "uint256"
        },
        {
          "internalType": "address",
          "name": "_beneficiary",
          "type": "address"
        }
      ],
      "stateMutability": "payable",
      "type": "constructor"
    },
    {
      "anonymous": false,
      "inputs": [
        {
          "indexed": false,
          "internalType": "uint256",
          "name": "amount",
          "type": "uint256"
        },
        {
          "indexed": false,
          "internalType": "uint256",
          "name": "when",
          "type": "uint256"
        }
      ],
      "name": "Withdrawal",
      "type": "event"
    },
    {
      "inputs": [],
      "name": "beneficiary",
      "outputs": [
        {
          "internalType": "address",
          "name": "",
          "type": "address"
        }
      ],
      "stateMutability": "view",
      "type": "function"
    },
    {
      "inputs": [],
      "name": "unlockTime",
      "outputs": [
        {
          "internalType": "uint256",
          "name": "",
          "type": "uint256"
        }
      ],
      "stateMutability": "view",
      "type": "function"
    },
    {
      "inputs": [],
      "name": "withdraw",
      "outputs": [],
      "stateMutability": "nonpayable",
      "type": "function"
    }
  ],
  "transactionHash": "0x3d60ad25c71b1a75624bb5f1d47e2c533a76f6b550becfd1b11e8b78d2296375",
  "args": [
    1702125430,
    "0x6365631620CEc6929FC0548A83f1dE42C15a6576"
  ],
  "numDeployments": 1,
  "solcInputHash": "39ad4ef0f3f195e04ebef9fcac5d6ddf",
  "bytecode": "0x60a06040526040516103f13803806103f1833981016040819052610022916100ef565b8142106100825760405162461bcd60e51b815260206004820152602360248201527f556e6c6f636b2074696d652073686f756c6420626520696e207468652066757460448201526275726560e81b60648201526084015b60405180910390fd5b6001600160a01b0381166100d85760405162461bcd60e51b815260206004820152601b60248201527f42656e6566696369617279206973207a65726f206164647265737300000000006044820152606401610079565b6000919091556001600160a01b031660805261012c565b6000806040838503121561010257600080fd5b825160208401519092506001600160a01b038116811461012157600080fd5b809150509250929050565b6080516102a461014d600039600081816067015261011001526102a46000f3fe608060405234801561001057600080fd5b50600436106100415760003560e01c8063251c1aa31461004657806338af3eed146100625780633ccfd60b146100a1575b600080fd5b61004f60005481565b6040519081526020015b60405180910390f35b6100897f000000000000000000000000000000000000000000000000000000000000000081565b6040516001600160a01b039091168152602001610059565b6100a96100ab565b005b6000544210156100fb5760405162461bcd60e51b8152602060048201526016602482015275165bdd4818d85b89dd081dda5d1a191c985dc81e595d60521b60448201526064015b60405180910390fd5b60405163da076a8760e01b81523360048201527f00000000000000000000000000000000000000000000000000000000000000006001600160a01b03169063da076a879060240160206040518083038186803b15801561015a57600080fd5b505afa15801561016e573d6000803e3d6000fd5b505050506040513d601f19601f820116820180604052508101906101929190610245565b6101de5760405162461bcd60e51b815260206004820152601860248201527f596f75277265206e6f7420612062656e6566696369617279000000000000000060448201526064016100f2565b604080514781524260208201527fbf2ed60bd5b5965d685680c01195c9514e4382e28e3a5a2d2d5244bf59411b93910160405180910390a160405133904780156108fc02916000818181858888f19350505050158015610242573d6000803e3d6000fd5b50565b60006020828403121561025757600080fd5b8151801515811461026757600080fd5b939250505056fea2646970667358221220a4afca17664156d9da4322502b9ccf3cb967a8fda2d6b5d19c2094b087a8046b64736f6c63430008090033",
  "devdoc": {
    "kind": "dev",
    "methods": {},
    "version": 1
  },
  "userdoc": {
    "kind": "user",
    "methods": {},
    "version": 1
  },
  "storageLayout": {
    "storage": [
      {
        "astId": 4,
        "contract": "contracts/Bank.sol:Bank",
        "label": "unlockTime",
        "offset": 0,
        "slot": "0",
        "type": "t_uint256"
      }
    ],
    "types": {
      "t_uint256": {
        "encoding": "inplace",
        "label": "uint256",
        "numberOfBytes": "32"
      }
    }
  }
}