{
  "address": "0x6365631620CEc6929FC0548A83f1dE42C15a6576",
  "abi": [
    {
      "inputs": [
        {
          "internalType": "address",
          "name": "_child_1",
          "type": "address"
        },
        {
          "internalType": "address",
          "name": "_child_2",
          "type": "address"
        }
      ],
      "stateMutability": "nonpayable",
      "type": "constructor"
    },
    {
      "inputs": [
        {
          "internalType": "address",
          "name": "",
          "type": "address"
        }
      ],
      "name": "approval",
      "outputs": [
        {
          "internalType": "bool",
          "name": "",
          "type": "bool"
        }
      ],
      "stateMutability": "view",
      "type": "function"
    },
    {
      "inputs": [
        {
          "internalType": "address",
          "name": "child",
          "type": "address"
        },
        {
          "internalType": "bool",
          "name": "_approval",
          "type": "bool"
        }
      ],
      "name": "approve",
      "outputs": [],
      "stateMutability": "nonpayable",
      "type": "function"
    },
    {
      "inputs": [
        {
          "internalType": "address",
          "name": "child",
          "type": "address"
        }
      ],
      "name": "getApproval",
      "outputs": [
        {
          "internalType": "bool",
          "name": "",
          "type": "bool"
        }
      ],
      "stateMutability": "view",
      "type": "function"
    }
  ],
  "transactionHash": "0x2f46a27c85c2908ade1e369754b25fccb0d3c580255a47d955173cdacb54b316",
  "args": [
    "0x16101742676EC066090da2cCf7e7380f917F9f0D",
    "0xA7B2387bF4C259e188751B46859fcA7E2043FEFD"
  ],
  "numDeployments": 1,
  "solcInputHash": "39ad4ef0f3f195e04ebef9fcac5d6ddf",
  "bytecode": "0x60e060405234801561001057600080fd5b506040516103f43803806103f483398101604081905261002f916100d6565b6001600160a01b0382161580159061004f57506001600160a01b03811615155b61009f5760405162461bcd60e51b815260206004820152601c60248201527f4368696c6472656e206164647265737365732061726520656d70747900000000604482015260640160405180910390fd5b6001600160a01b031660a081905260c0525033608052610109565b80516001600160a01b03811681146100d157600080fd5b919050565b600080604083850312156100e957600080fd5b6100f2836100ba565b9150610100602084016100ba565b90509250929050565b60805160a05160c0516102bd610137600039600061016b015260006101300152600060c901526102bd6000f3fe608060405234801561001057600080fd5b50600436106100415760003560e01c80633d140d21146100465780639430b4961461005b578063da076a8714610092575b600080fd5b610059610054366004610229565b6100be565b005b61007e610069366004610265565b60006020819052908152604090205460ff1681565b604051901515815260200160405180910390f35b61007e6100a0366004610265565b6001600160a01b031660009081526020819052604090205460ff1690565b336001600160a01b037f0000000000000000000000000000000000000000000000000000000000000000161461012e5760405162461bcd60e51b815260206004820152601060248201526f21b0b63632b9103737ba1037bbb732b960811b60448201526064015b60405180910390fd5b7f00000000000000000000000000000000000000000000000000000000000000006001600160a01b0316826001600160a01b0316148061019f57507f00000000000000000000000000000000000000000000000000000000000000006001600160a01b0316826001600160a01b0316145b6101e25760405162461bcd60e51b815260206004820152601460248201527310da1a5b19081b9bdd081c9958dbd9db9a5e995960621b6044820152606401610125565b6001600160a01b03919091166000908152602081905260409020805460ff1916911515919091179055565b80356001600160a01b038116811461022457600080fd5b919050565b6000806040838503121561023c57600080fd5b6102458361020d565b91506020830135801515811461025a57600080fd5b809150509250929050565b60006020828403121561027757600080fd5b6102808261020d565b939250505056fea26469706673582212205259ab6f144109478fba782b769192cf15f75248c7a8d38afe9c89020e090d2064736f6c63430008090033",
  "devdoc": {
    "kind": "dev",
    "methods": {},
    "version": 1
  },
  "userdoc": {
    "kind": "user",
    "methods": {},
    "version": 1
  },
  "storageLayout": {
    "storage": [
      {
        "astId": 105,
        "contract": "contracts/Beneficiaries.sol:Beneficiaries",
        "label": "approval",
        "offset": 0,
        "slot": "0",
        "type": "t_mapping(t_address,t_bool)"
      }
    ],
    "types": {
      "t_address": {
        "encoding": "inplace",
        "label": "address",
        "numberOfBytes": "20"
      },
      "t_bool": {
        "encoding": "inplace",
        "label": "bool",
        "numberOfBytes": "1"
      },
      "t_mapping(t_address,t_bool)": {
        "encoding": "mapping",
        "key": "t_address",
        "label": "mapping(address => bool)",
        "numberOfBytes": "32",
        "value": "t_bool"
      }
    }
  }
}